:100000000C9462010C948E020C947F010C947F017D
:100010000C947F010C947F010C947F010C947F0160
:100020000C947F010C947F010C947F010C947F0150
:100030000C947F010C947F010C947F010C947F0140
:100040000C943E0D0C947F010C947F010C947F0165
:100050000C947F010C947F010C947F010C947F0120
:100060000C947F010C947F010C947F010C947F0110
:100070000C947F010C947F010C947F010C947F0100
:100080000C947F010C947F010C947F010C947F01F0
:100090000C947F010C947F010C947F010C947F01E0
:1000A0000C947F010C947F010C947F010C947F01D0
:1000B0000C947F01E519F319FA19141A011A141A8C
:1000C000141A141A081A141A141A141A141A141ACC
:1000D000141A141A0E1A141A141A141A141A141AB6
:1000E000141A141A141A141A141A141A141A141AA0
:1000F000141A141AEB191F1A2D1A341A4E1A3B1A15
:100100004E1A4E1A4E1A421A4E1A4E1A4E1A4E1ABB
:100110004E1A4E1A4E1A481A4E1A4E1A4E1A4E1AA5
:100120004E1A4E1A4E1A4E1A4E1A4E1A4E1A4E1A8F
:100130004E1A4E1A4E1A251A591A691A711A8F1A1E
:10014000791A8F1A8F1A8F1A811A8F1A8F1A8F1A8B
:100150008F1A8F1A8F1A8F1A881A8F1A8F1A8F1A5E
:100160008F1A8F1A8F1A8F1A8F1A8F1A8F1A8F1A47
:100170008F1A8F1A8F1A8F1A601A9B1ABB1ACB1AF2
:10018000261CDB1A261C261C261CEB1A261C261CE9
:10019000261C261C261C261C261CFA1A261C261C7D
:1001A000261C261C261C261C261C261C261C261C3F
:1001B000261C261C261C261C261CAA1A181B261BBD
:1001C0002D1B471B341B471B471B471B3B1B471B58
:1001D000471B471B471B471B471B471B411B471B15
:1001E000471B471B471B471B471B471B471B471BFF
:1001F000471B471B471B471B471B471B1E1B531B0C
:10020000671B711B2F1C7B1B2F1C2F1C2F1C851B7E
:100210002F1C2F1C2F1C2F1C2F1C2F1C2F1C8E1B28
:100220002F1C2F1C2F1C2F1C2F1C2F1C2F1C2F1C76
:100230002F1C2F1C2F1C2F1C2F1C2F1C2F1C5C1B3A
:10024000A61BB41BBB1BD51BC21BD51BD51BD51BAB
:10025000C91BD51BD51BD51BD51BD51BD51BD51B2A
:10026000CF1BD51BD51BD51BD51BD51BD51BD51B14
:10027000D51BD51BD51BD51BD51BD51BD51BD51BFE
:10028000AC1BE11BF51BFF1B411C091C411C411C45
:10029000411C131C411C411C411C411C411C411CA4
:1002A000411C1C1C411C411C411C411C411C411C8B
:1002B000411C411C411C411C411C411C411C411C56
:1002C000411CEA1B11241FBECFEFD8E0DEBFCDBF1B
:1002D00015E0A0E0B1E0EEEBF0E502C005900D9274
:1002E000A63AB107D9F725E0A6EAB5E001C01D920C
:1002F000A83EB207E1F70E949B210C945D280C9464
:100300000000CF93DF93C82F8EE70E942925DC2FB2
:10031000D07F8D2F0E943D258D2F84600E943D252A
:100320008D2F0E943D2580E1C89FE00111248C2F74
:100330000E943D258C2F84600E943D258C2F0E94B9
:100340003D250E94492587EE93E00197F1F700C013
:100350000000DF91CF9108951F93CF93DF93C82FB3
:100360008EE70E9429251C2F107FD12FD9608D2F59
:100370000E943D25812F8D600E943D258D2F0E947A
:100380003D2580E1C89FE0011124DC2FD9608D2F2D
:100390000E943D258C2F8D600E943D258D2F0E944F
:1003A0003D250E94492585E88A95F1F70000DF91F7
:1003B000CF911F9108950F931F93CF93DF936623DF
:1003C00071F0EC016150062F10E00F5F1F4F080F16
:1003D000191F89910E94AC01C017D107D1F7DF9195
:1003E000CF911F910F9108950E9423252FEF89EF40
:1003F00090E0215080409040E1F700C000008EE77F
:100400000E94292580E30E943D2584E30E943D252A
:1004100080E30E943D258FE097E20197F1F700C04D
:10042000000084E30E943D2580E30E943D258FEE7D
:1004300090E00197F1F700C0000084E30E943D25A1
:1004400080E30E943D258FEE90E00197F1F700C018
:10045000000080E20E943D2584E20E943D2580E26A
:100460000E943D258FEE90E00197F1F700C000005B
:100470000E94492588E20E94810190EA9A95F1F74D
:1004800088E00E94810120EA2A95F1F781E00E942C
:1004900081018FE097E20197F1F700C0000086E04C
:1004A0000E94810190EA9A95F1F78CE00E94810107
:1004B00020EA2A95F1F7089580EC0E9481010895C1
:1004C00081E00E9481018FEC97E00197F1F700C075
:1004D0000000089582E00E9481018FE99FE001976A
:1004E000F1F700C0000008950F931F93CF93DF939F
:1004F0008C01862F880F880F880F805C0E948101F5
:10050000E801085F1F4F89910E94AC01C017D10715
:10051000D1F7DF91CF911F910F9108951F920F9204
:100520000FB60F9211248F938091C10580FF15C0E3
:100530008091C10581FD07C01092C3058091C1055E
:1005400082608093C1058091C3058F3580F18091D1
:10055000C10581608093C1052AC08091C2058111C7
:1005600004C081E08093C20502C01092C205809150
:10057000C2058130E1F48091C3058B3018F084EB23
:100580008093C4058091C305813218F08EEB80936F
:10059000C4058091C305893318F083E08093C405B6
:1005A0008091C305863418F084E08093C4051092CE
:1005B000C3058F910F900FBE0F901F9018958AE280
:1005C00084B980E387B983E08DB985EC85B98091E2
:1005D000D6058F70813039F48AEF8AB981E0809333
:1005E00069008DBB02C08EEF8AB984E088B990E1C2
:1005F0009BB985BD81E080936E0082EC8093800082
:1006000082E18093810008950F931F93CF93DF932E
:1006100089E790E00E9427288093E7058093CF0523
:10062000883008F075C0C82FCC0FC80F9C2F990FC9
:10063000990FC90FCF5FD0E0CE010E94272807EBAA
:1006400015E0F8018083CE0101960E942728F80169
:100650008183CE0102960E942728F8018383CE0170
:1006600003960E942728F8018483CE0104960E94F5
:1006700027288093DB05CE0105960E9427288093CA
:10068000CD05CE0106960E9427288093D605CE017F
:1006900007960E9427280DED15E0F8018083CE0112
:1006A00008960E942728F8018183CE0109960E94AE
:1006B0002728F8018283CE010A960E942728F80194
:1006C0008383CE010B960E942728F8018483CE01F4
:1006D0000C960E942728F8018583CE010D960E9472
:1006E0002728F8018683CE010E960E942728F8015C
:1006F00087838AE790E00E9427288093DA058BE7BA
:1007000090E00E942F289093D1058093D0055BC084
:1007100060E081E090E00E94352860E082E090E0B7
:100720000E94352860E083E090E00E94352860E078
:1007300084E090E00E94352860E085E090E00E942F
:10074000352860E086E090E00E94352863E087E08D
:1007500090E00E94352860E088E090E00E94352813
:1007600060E089E090E00E94352860E08AE090E057
:100770000E94352860E08BE090E00E94352860E020
:100780008CE090E00E94352860E08DE090E00E94CF
:10079000352860E08EE090E00E94352860E08FE030
:1007A00090E00E94352860E089E790E00E943528BB
:1007B00062E38AE790E00E94352864E873E08BE703
:1007C00090E00E944728DF91CF911F910F910895EB
:1007D00081E680937C0086EC80937A00EAE7F0E083
:1007E000808186FDFDCF809179008093BC0587E6EE
:1007F00080937C0086EC80937A00EAE7F0E08081C9
:1008000086FDFDCF809179008093BD0583E68093BE
:100810007C0086EC80937A00EAE7F0E0808186FD38
:10082000FDCF809179008093BE0580E680937C00A7
:1008300086EC80937A00EAE7F0E0808186FDFDCFC8
:10084000809179008093BF0508955F9A5D988EB17D
:1008500083608EB920EA2A95F1F7189923C0809118
:10086000BA05813059F020E18202C001112488527A
:100870009C4F9093E6058093E50506C088EB9BE0CE
:100880009093E6058093E505EBEAF5E08FE0808341
:10089000818185FD03C088628093AC0581E08093EF
:1008A000AD0512C0189B10C08091AD05813061F478
:1008B000EBEAF5E081818F7D8183E7EBF5E08381D1
:1008C000815083831092AD051A9923C08091BA0597
:1008D0008F3F59F020E18202C001112488509C4FC3
:1008E0009093E6058093E50506C088EB9BE0909326
:1008F000E6058093E505EBEAF5E08FE080838181F2
:1009000085FD03C088628093AC0581E08093AE05CD
:1009100012C01A9B10C08091AE05813061F4EBEAE1
:10092000F5E081818F7D8183E7EBF5E083818F5F47
:1009300083831092AE051F9923C08091B805813042
:1009400059F020E18202C001112488529C4F9093FB
:10095000E6058093E50506C088EB9BE09093E605ED
:100960008093E505EBEAF5E08FE08083818185FDEA
:1009700003C088628093AC0581E08093AF0512C00C
:100980001F9B10C08091AF05813061F4EBEAF5E068
:1009900081818F7D8183E7EBF5E0818181508183C7
:1009A0001092AF051E9923C08091B8058F3F59F072
:1009B00020E18202C001112488509C4F9093E605EB
:1009C0008093E50506C088EB9BE09093E605809355
:1009D000E505EBEAF5E08FE08083818185FD03C0CA
:1009E00088628093AC0581E08093B00512C01E9BA5
:1009F00010C08091B005813061F4EBEAF5E08181AF
:100A00008F7D8183E7EBF5E081818F5F8183109299
:100A1000B0058BB1806A8BB97098719A80EA8A951B
:100A2000F1F7189923C08091B705813059F020E182
:100A30008202C001112488529C4F9093E605809356
:100A4000E50506C088EB9BE09093E6058093E505FD
:100A5000EBEAF5E08FE08083818185FD03C0886249
:100A60008093AC0581E08093B10512C0189B10C043
:100A70008091B105813061F4EBEAF5E081818F7DF1
:100A80008183E7EBF5E08081815080831092B1058E
:100A90001A9923C08091B7058F3F59F020E1820257
:100AA000C001112488509C4F9093E6058093E50582
:100AB00006C088EB9BE09093E6058093E505EBEAA2
:100AC000F5E08FE08083818185FD03C0886280939B
:100AD000AC0581E08093B20512C01A9B10C08091D2
:100AE000B205813061F4EBEAF5E081818F7D81838D
:100AF000E7EBF5E080818F5F80831092B2058BB1C8
:100B0000806A8BB98EB183608EB908955D9A5F98C3
:100B10008EB183608EB980EA8A95F1F71E9B06C07C
:100B20008091A9058E7F8093A90505C08091A905B4
:100B300081608093A9051F9B06C08091A9058D7FC8
:100B40008093A90505C08091A90582608093A905BD
:100B5000189B06C08091A9058B7F8093A90505C0CD
:100B60008091A90584608093A9051A9B06C0809195
:100B7000A905877F8093A90505C08091A905886094
:100B80008093A9058BB1816A8BB9719880EA8A95A7
:100B9000F1F71E9B06C08091A9058F7E8093A90561
:100BA00005C08091A90580618093A9051F9B06C09F
:100BB0008091A9058F7D8093A90505C08091A90525
:100BC00080628093A9051A9B06C08091A9058F7B3E
:100BD0008093A90505C08091A90580648093A9052B
:100BE000189B06C08091A9058F778093A90505C041
:100BF0008091A90580688093A9058BB1816A8BB922
:100C000008958BB1806A8BB97098719A80EA8A9541
:100C1000F1F71F9919C01E9917C088EE93E09093C1
:100C2000E6058093E505EBEAF5E08FE080838181BE
:100C300085FD03C088628093AC05EDEAF5E016827D
:100C4000178281E0808767C01F9B11C01E9B0FC069
:100C50008091B505813059F4EBEAF5E091819F7DF3
:100C600091831092B5059BB1916A9BB908958091CB
:100C7000B505811150C01F9914C088EE93E0909380
:100C8000E6058093E505EBEAF5E08FE0808381815E
:100C900085FD03C088628093AC0581E08093B30535
:100CA00012C01F9B10C08091B305813061F4EBEA44
:100CB000F5E081818F7D81838091CE058F5F809368
:100CC000CE051092B3051E9914C088EE93E0909360
:100CD000E6058093E505EBEAF5E08FE0808381810E
:100CE00085FD03C088628093AC0581E08093B405E4
:100CF00012C01E9B10C08091B405813061F4EBEAF4
:100D0000F5E081818F7D81838091CE058150809334
:100D1000CE051092B4058BB1806A8BB98EB1836019
:100D20008EB980E0089586E680937C0087EC8093FE
:100D30007A00EAE7F0E0808186FDFDCF80917900BE
:100D40008093DC050895CF93EDEDF5E020E030E0F1
:100D5000B0E0C0E0A0E050E060E070E041E08191F0
:100D60008430D9F028F4813051F0823079F032C0EB
:100D7000803109F1803239F1883061F515C0742F66
:100D8000022E01C0770F0A94EAF724C0642F022EC6
:100D900001C0660F0A94EAF71DC0542F022E01C04D
:100DA000550F0A94EAF716C0A42F022E01C0AA0F0D
:100DB0000A94EAF70FC0842F022E01C0880F0A940C
:100DC000EAF7C82F07C0842F022E01C0880F0A94AB
:100DD000EAF7B82F2F5F3F4F2830310509F0BFCF1A
:100DE000772379F08091A905782331F08091CD05A2
:100DF00081608093CD0505C08091CD058E7F809365
:100E0000CD05662379F08091A905682331F08091A2
:100E1000CD0582608093CD0505C08091CD058D7F85
:100E20008093CD05552359F08091CD05582321F0AD
:100E300084608093CD0503C08B7F8093CD05AA236A
:100E400079F08091A905A82331F08091CD058860C3
:100E50008093CD0505C08091CD05877F8093CD051A
:100E6000CC2379F09091A9059C2331F08091CD0598
:100E700080618093CD0505C08091CD058F7E8093E4
:100E8000CD05BB2381F09091A9058B2F892331F0EB
:100E90008091B60580628093B60505C08091B60545
:100EA0008F7D8093B605CF910895FF920F931F9386
:100EB000CF93DF938091B60585FF0CC08091D60556
:100EC00084FF05C08091CA058093C0050FC01092B1
:100ED000C0050CC08091D60584FF05C08091CA056D
:100EE0008093C00503C08FEF8093C0052091DB0580
:100EF00025FF2BC0ECEBF5E04081818190E050E0D4
:100F00004F575109BC01640F751F6F3F710529F0E0
:100F100024F03FEF3093BD0507C077231CF41092F7
:100F2000BD0502C06093BD05841B950B8F3F9105E5
:100F300029F024F08FEF8093BC0507C099231CF49F
:100F40001092BC0502C08093BC0526FF2BC0ECEBC1
:100F5000F5E04381818190E050E04F575109BC0199
:100F6000640F751F6F3F710529F024F03FEF309338
:100F7000BD0507C077231CF41092BD0502C0609325
:100F8000BD05841B950B8F3F910529F024F08FEF51
:100F90008093BF0507C099231CF41092BF0502C0BF
:100FA0008093BF0524FFA0C0ECEBF5E04381828174
:100FB00090E050E04F575109BC01640F751F6F3F1F
:100FC000710529F024F03FEF3093BE0507C0772369
:100FD0001CF41092BE0502C06093BE05841B950BE5
:100FE0008F3F910529F024F08FEF8093BF057CC0DF
:100FF00099231CF41092BF0577C08093BF0574C07D
:10100000EF0180818A3014F0108303C0873F0CF415
:10101000F082319638818C9190E0C4E03C02800DE2
:10102000911D11248F3F910509F010F48C9309C094
:101030008F3F910521F01CF0ED01088302C0ED0106
:1010400018821196E617F707D9F68091CD0580FF33
:101050000AC0ECEBF5E0408150E04F57510955953F
:1010600047954158408381FF0AC0ECEBF5E0418190
:1010700050E04F575109559547954158418383FF9B
:101080000AC0ECEBF5E0438150E04F57510955950C
:1010900047954158438384FF0AC0ECEBF5E0848117
:1010A00090E08F579109959587958158848322FF09
:1010B00005C0ECEBF5E083818095838321FF05C0BB
:1010C000ECEBF5E081818095818320FF05C0ECEB9E
:1010D000F5E080818095808323FF13C0ECEBF5E081
:1010E0008481809584830DC0ACEBB5E0E7EBF5E03F
:1010F0006BEB75E00F2EF7EFFF2EF02D19E00FEFE1
:101100007FCFDF91CF911F910F91FF900895ACEBAE
:10111000B5E021EC35E05B988FE193E00197F1F7C2
:1011200000C000005B9A83E794E00197F1F700C0EC
:101130000000FD018C9188234CF483E294E0019738
:10114000F1F700C000008C918F578C938081803420
:1011500048F081E192E00197F1F700C00000808142
:101160008F5380838081803248F087E091E001973F
:10117000F1F700C0000080818F5180838081803131
:1011800030F090EB9A95F1F780818F5080838081C9
:10119000883030F088E58A95F1F780818750808328
:1011A0008081843038F09AE29A95F1F700C080810E
:1011B000835080838081823038F085E18A95F1F711
:1011C000000080818150808311968081813021F4DC
:1011D0009AE09A95F1F700C0A217B30709F09BCFE8
:1011E0005B9808958091CB058330E0F31092CB0596
:1011F0000E9487080895CF93DF93EC019C0140E0A3
:1012000050E060E271EA87E090E00E94E0273093CE
:101210008700209386008091DA05882389F0CD2B02
:1012200059F08091860090918700969587959093CC
:1012300089008093880004C0109289001092880071
:10124000DF91CF9108958091AC0583FF37C084FF73
:1012500006C08F7E8093AC051092C9050895209139
:10126000AB059091C905921738F48091E5059091EE
:10127000E6050E94FB0808954091C90530E0220F61
:10128000331F50E0421753072CF480E090E00E9497
:10129000FB0808954091C90550E02417350794F4E0
:1012A000982F977031F01092C90581508093AC054A
:1012B0000895877F80618093AC05089580E090E079
:1012C0000E94FB080895623008F066C1813160F425
:1012D000E0914201F091430198E0699FE00DF11D1A
:1012E00011249FEF918327C08E3160F4E091420179
:1012F000F091430198E0699FE00DF11D112494E005
:10130000918319C08B3260F4E0914201F091430166
:1013100098E0699FE00DF11D112496E091830BC0C8
:10132000E0914201F091430198E0699FE00DF11DC9
:10133000112490E29183883360F4E0914201F091AE
:10134000430198E0699FE00DF11D11249FEF928306
:1013500028C0853460F4E0914201F091430198E0A7
:10136000699FE00DF11D112495E092831AC082352A
:1013700060F4E0914201F091430198E0699FE00D33
:10138000F11D112497E092830EC0E0914201F0918B
:10139000430198E0699FE00DF11D112490E29283D2
:1013A0000EC0823560F4E0914201F091430198E073
:1013B000699FE00DF11D11249FEF938327C08F35A6
:1013C00060F4E0914201F091430198E0699FE00DE3
:1013D000F11D112494E0938319C08C3660F4E091E0
:1013E0004201F091430198E0699FE00DF11D112445
:1013F00096E093830BC0E0914201F091430198E0A5
:10140000699FE00DF11D112490E29383893760F408
:10141000E0914201F091430198E0699FE00DF11DD8
:10142000112492E0948319C0863860F4E09142015F
:10143000F091430198E0699FE00DF11D11249CE7B4
:1014400094830BC0E0914201F091430198E0699FC1
:10145000E00DF11D112495E094838D3A60F0E09148
:101460004201F091430198E0699FE00DF11D1124C4
:101470009FEF958327C0803A60F0E0914201F091A0
:10148000430198E0699FE00DF11D112493E09583DD
:1014900019C0833960F0E0914201F091430198E076
:1014A000699FE00DF11D112491E095830BC0E0913F
:1014B0004201F091430198E0699FE00DF11D112474
:1014C00090E29583873C60F0E0914201F091430106
:1014D00098E0699FE00DF11D11249FEF968326C0CF
:1014E0008A3B60F0E0914201F091430198E0699FEE
:1014F000E00DF11D112492E0968318C08D3A58F04A
:10150000E0914201F091430198E0699FE00DF11DE7
:10151000112416820BC0E0914201F091430198E042
:10152000699FE00DF11D112490E296838E3E60F0DC
:10153000E0914201F091430188E0689FE00DF11DC8
:1015400011248FEF87830895813E60F0E09142017E
:10155000F091430198E0699FE00DF11D112483E0B3
:1015600087830895843D60F0E0914201F09143014A
:1015700088E0689FE00DF11D112481E087830895C4
:10158000E0914201F091430198E0699FE00DF11D67
:10159000112480E287830895813190F4E62FF0E0F2
:1015A0003297EE0FFF1FEE0FFF1FEE0FFF1F209170
:1015B000400130914101E20FF31F9FEF918339C049
:1015C0008E3190F4E62FF0E03297EE0FFF1FEE0F12
:1015D000FF1FEE0FFF1F2091400130914101E20FEC
:1015E000F31F94E0918325C08B3290F4E62FF0E056
:1015F0003297EE0FFF1FEE0FFF1FEE0FFF1F209120
:10160000400130914101E20FF31F96E0918311C038
:10161000E62FF0E03297EE0FFF1FEE0FFF1FEE0FE9
:10162000FF1F2091400130914101E20FF31F90E232
:101630009183883390F4E62FF0E03297EE0FFF1F8E
:10164000EE0FFF1FEE0FFF1F20914001309141016F
:10165000E20FF31F9FEF92833AC0853490F4E62F98
:10166000F0E03297EE0FFF1FEE0FFF1FEE0FFF1F90
:101670002091400130914101E20FF31F95E09283E8
:1016800026C0823590F4E62FF0E03297EE0FFF1F70
:10169000EE0FFF1FEE0FFF1F20914001309141011F
:1016A000E20FF31F97E0928314C0E62FF0E0329729
:1016B000EE0FFF1FEE0FFF1FEE0FFF1F20914001E7
:1016C00030914101E20FF31F90E2928314C0823502
:1016D00090F4E62FF0E03297EE0FFF1FEE0FFF1FA2
:1016E000EE0FFF1F2091400130914101E20FF31FE7
:1016F0009FEF938339C08F3590F4E62FF0E0329757
:10170000EE0FFF1FEE0FFF1FEE0FFF1F2091400196
:1017100030914101E20FF31F94E0938325C08C3692
:1017200090F4E62FF0E03297EE0FFF1FEE0FFF1F51
:10173000EE0FFF1F2091400130914101E20FF31F96
:1017400096E0938311C0E62FF0E03297EE0FFF1F73
:10175000EE0FFF1FEE0FFF1F20914001309141015E
:10176000E20FF31F90E29383893790F4E62FF0E0C5
:101770003297EE0FFF1FEE0FFF1FEE0FFF1F20919E
:10178000400130914101E20FF31F92E0948325C0A4
:10179000863890F4E62FF0E03297EE0FFF1FEE0F41
:1017A000FF1FEE0FFF1F2091400130914101E20F1A
:1017B000F31F9CE7948311C0E62FF0E03297EE0F01
:1017C000FF1FEE0FFF1FEE0FFF1F20914001309112
:1017D0004101E20FF31F95E094838D3A90F0E62FDC
:1017E000F0E03297EE0FFF1FEE0FFF1FEE0FFF1F0F
:1017F0002091400130914101E20FF31F9FEF95834B
:1018000039C0803A90F0E62FF0E03297EE0FFF1FDC
:10181000EE0FFF1FEE0FFF1F20914001309141019D
:10182000E20FF31F93E0958325C0833990F0E62FF4
:10183000F0E03297EE0FFF1FEE0FFF1FEE0FFF1FBE
:101840002091400130914101E20FF31F91E0958317
:1018500011C0E62FF0E03297EE0FFF1FEE0FFF1FD3
:10186000EE0FFF1F2091400130914101E20FF31F65
:1018700090E29583873C90F0E62FF0E03297EE0FF0
:10188000FF1FEE0FFF1FEE0FFF1F20914001309151
:101890004101E20FF31F9FEF968338C08A3B90F01F
:1018A000E62FF0E03297EE0FFF1FEE0FFF1FEE0F57
:1018B000FF1F2091400130914101E20FF31F92E0A0
:1018C000968324C08D3A88F0E62FF0E03297EE0F31
:1018D000FF1FEE0FFF1FEE0FFF1F20914001309101
:1018E0004101E20FF31F168211C0E62FF0E032979C
:1018F000EE0FFF1FEE0FFF1FEE0FFF1F20914001A5
:1019000030914101E20FF31F90E296838E3E90F0FA
:10191000E62FF0E03297EE0FFF1FEE0FFF1FEE0FE6
:10192000FF1F6091400170914101E60FF71F8FEF9B
:1019300087830895813E90F0E62FF0E03297EE0F16
:10194000FF1FEE0FFF1FEE0FFF1F60914001709110
:101950004101E60FF71F83E087830895843D90F0EF
:10196000E62FF0E03297EE0FFF1FEE0FFF1FEE0F96
:10197000FF1F6091400170914101E60FF71F81E068
:1019800087830895E62FF0E03297EE0FFF1FEE0FEA
:10199000FF1FEE0FFF1F8091400190914101E80F62
:1019A000F91F80E2878308958091CF05C82FCC0F5F
:1019B000C80F8C2F880F880FC80FCF5FD0E007EBC0
:1019C00015E0F8016081CE010E943528F80161819F
:1019D000CE0101960E943528F8016381CE0102965E
:1019E0000E943528F8016481CE0103960E943528B3
:1019F0008FE39CE90197F1F700C000000E946A02A2
:101A000060E185E491E00E94DB010E945C0260E1FC
:101A100086E591E00E94DB0184E893E00E94FB08E8
:101A20009FEFE2E5F7E09150E040F040E1F700C0C1
:101A3000000088E592E00E94FB082FEF81EE94E021
:101A4000215080409040E1F700C0000080E090E02D
:101A50000E94FB08EFEFF2E527E0E150F040204064
:101A6000E1F700C000005C988FEF99E6E8E1815053
:101A70009040E040E1F700C00000F5CF1F920F92C8
:101A80000FB60F9211242F933F934F935F936F9351
:101A90007F938F939F93AF93BF93EF93FF93809127
:101AA000C8058F5F8093C8058091CB058F5F8093B9
:101AB000CB058091C3058F5F8093C3058091C905D5
:101AC0008F5F8093C9058091C5058F5F8093C505A1
:101AD00085E086BD8091D60584FF17C08091B6054C
:101AE00085FF0AC08091CA05863078F08091CA05CA
:101AF00081508093CA0509C08091CA058A3F28F4A5
:101B00008091CA058F5F8093CA058091C8058C3784
:101B1000C0F08091C6059091C70501969093C705C6
:101B20008093C6052091C6053091C7058091D005E8
:101B30009091D1058217930710F40E94D40C109253
:101B4000C805FF91EF91BF91AF919F918F917F91C8
:101B50006F915F914F913F912F910F900FBE0F901A
:101B60001F9018952F923F924F925F926F927F92A3
:101B70008F929F92AF92BF92CF92DF92EF92FF929D
:101B80000F931F93CF93DF9300D000D000D0CDB739
:101B9000DEB71092CE050E9460020F2EFFE08F2E5E
:101BA000F3E09F2EF02D792C582C692C8B820E940B
:101BB00001069091CE0599232CF49CE09093CE05DC
:101BC0000C9408209D301CF01092CE0502C091119B
:101BD00063C1882311F40C940C20F090CF0581E3AD
:101BE0008F0DF40187830E946A0260E188E791E02B
:101BF0000E94DB011EE301E0EB800E940106909150
:101C0000CE0599231CF41092CE0507C092301CF02B
:101C10000093CE0536C0911131C0F401108320E24B
:101C20002287882309F42CC18091CF058093CE05AB
:101C30000E9401069091CE0599231CF41092CE05C6
:101C400005C098301CF037E03093CE059091CE055A
:101C50009093CF059F5CF4019783882319F010922D
:101C6000CE050EC10E946A020E945C0260E1852DD1
:101C7000962D0E94DB010E942309DACF913009F0F2
:101C8000FFC020E2F40120831287882309F4F8C002
:101C90008F2D880FF80E3F2D330F330FF30EF39473
:101CA0008F2D90E09A83898307EB15E0F80160811E
:101CB0000E943528F801618189819A8101960E94EC
:101CC0003528F801638189819A8102960E9435281E
:101CD000F801648189819A8103960E943528609178
:101CE000DB0589819A8104960E9435286091CD0593
:101CF00089819A8105960E9435286091D60589814F
:101D00009A8106960E943528EDEDF5E06081898183
:101D10009A8107960E9435286091DE0589819A8113
:101D200008960E9435286091DF0589819A8109967D
:101D30000E9435286091E00589819A810A960E9467
:101D400035286091E10589819A810B960E9435289A
:101D50006091E20589819A810C960E9435286091F4
:101D6000E30589819A810D960E9435286091E405EA
:101D700089819A810E960E9435286091CF0589E766
:101D800090E00E9435288091CF05F82FFF0FF80FC3
:101D90008F2F880F880FF80FFF5F2F2F30E03A83C7
:101DA0002983C9010E942728F801808389819A81AB
:101DB00001960E942728F801818389819A810296E1
:101DC0000E942728F801838389819A8103960E94C3
:101DD0002728F801848389819A8104960E94272804
:101DE0008093DB0589819A8105960E94272880933C
:101DF000CD0589819A8106960E9427288093D60571
:101E000089819A8107960E942728EDEDF5E080836D
:101E100089819A8108960E9427288093DE0589810E
:101E20009A8109960E9427288093DF0589819A81EB
:101E30000A960E9427288093E00589819A810B9653
:101E40000E9427288093E10589819A810C960E943F
:101E500027288093E20589819A810D960E94272880
:101E60008093E30589819A810E960E9427288093AA
:101E7000E4051092CE05140108E711E00C948020CF
:101E80000E946A020E945C0260E18E2D972D0E94E2
:101E9000DB010E942309B1CE913009F046C18823AD
:101EA00011F40C9415201092CE050E94600207E6F2
:101EB00011E028E731E00F2EF9E8EF2EF1E0FF2ED8
:101EC000F02D6894442445F80F2EFAE9CF2EF1E066
:101ED000DF2EF02D0F2EF6E53F2EF02D0F2EFBEA14
:101EE000AF2EF1E0BF2EF02D3A8329830E94010628
:101EF0009091CE0599231CF41092CE0508C096301F
:101F000024F095E09093CE05DCC0911126C0882383
:101F100069F08091DB0586FD09C085FF04C08F7DD7
:101F20008093DB0503C080628093DB058091DB0535
:101F300085FF03C0F601328602C0F601428686FFA5
:101F400006C0F70132868701DA82C982DEC0F70156
:101F500042868701DA82C982D8C0913051F5882340
:101F600069F08091DB0585FD0DC086FF04C08F7B85
:101F70008093DB0503C080648093DB058091DB05E3
:101F800085FF03C03092C60102C04092C60186FFA1
:101F900008C0F501328685012CEB31E03A832983B4
:101FA000B4C0F501428685012CEB31E03A832983E8
:101FB000ACC0923031F5882359F08091DB0584FF65
:101FC00004C08F7E8093DB0503C080618093DB05B6
:101FD0008091DB0586FF03C0F701328602C0F7015E
:101FE000428684FF07C03092DA010DEC11E0FA82DC
:101FF000E9828BC04092DA010DEC11E0FA82E982AD
:1020000084C0933051F5882359F08091DB058823F3
:1020100024F48F778093DB0503C080688093DB0511
:102020008091DB0584FF03C03092FC0102C0409226
:10203000FC0188234CF43092E8010EED11E02FEE04
:1020400031E03A83298361C04092E8010EED11E04E
:102050008FEE91E09A83898358C0943081F588236C
:1020600079F08091D60586FF06C08091D6058F7BDA
:102070008093D60505C08091D60580648093D605EF
:102080008091DB0588231CF430921B0202C0409231
:102090001B028091D60586FF09C030920A0200E03B
:1020A00012E0E1E1F2E0FA83E9832FC040920A02F4
:1020B00000E012E021E132E03A83298326C0953026
:1020C00021F5882369F081E08093CE050F2EF2E29E
:1020D0002F2EF2E03F2EF02D03E312E00C9480202F
:1020E0008091DB0586FF09C030923D0202E212E0DA
:1020F00083E392E09A83898308C040923D0202E222
:1021000012E0E3E3F2E0FA83E98360E189819A81F6
:102110000E94DB010E945C0260E1C8010E94DB01B9
:102120000E946A020E942309E1CE923009F0F5C0B4
:10213000882311F40C941E201092CE050E94600298
:102140000F2EFEE4CF2EF02D0F2EF5E5EF2EF2E050
:10215000FF2EF02D0F2EF2E54F2EF02D6894DD248A
:10216000D2F86894BB24B5F80F2EFEE3AF2EF02D05
:102170000E9401069091CE0599231CF41092CE0581
:1021800007C095301CF0D092CE052FC094306CF56E
:102190009091DB0590FF03C0F701458202C0F70173
:1021A000C58291FF03C0F701468602C0F701C686CB
:1021B00092FF03C04092490202C0C092490293FFBD
:1021C0000AC0409252020F2EF4E42F2EF2E03F2E6E
:1021D000F02D87012AC0C09252020F2EF4E42F2E58
:1021E000F2E03F2EF02D870120C09091DB0592FF99
:1021F00003C04092490202C0C092490293FF0BC043
:10220000409252020F2EF6E62F2EF2E03F2EF02DD6
:1022100004E412E00AC0C09252020F2EF6E62F2EFE
:10222000F2E03F2EF02D04E412E09091CE059111E2
:1022300014C0F801A082882311F40C94AB202091E3
:10224000DB0520FF05C02E7F2093DB050C94AB201F
:1022500021602093DB050C94AB20F801B082913013
:1022600099F4A086882311F40C94AF202091DB050B
:1022700021FF05C02D7F2093DB050C94AF20226049
:102280002093DB050C94AF20F801B0869230A1F4C6
:10229000F101A082882311F40C94B3208091DB0516
:1022A00082FF05C08B7F8093DB050C94B320846094
:1022B0008093DB050C94B320F101B082933079F464
:1022C000A0868823D9F08091DB0583FF04C0877F37
:1022D0008093DB0513C088608093DB050FC0F1019C
:1022E000B086943059F4F801B086F101A0828823B9
:1022F00029F082E08093CE050C94802060E1C80133
:102300000E94DB010E945C0260E1C1010E94DB01CE
:102310000E946A020E9423092BCF933009F0FAC071
:10232000882311F40C9427201092CE050E9460029D
:102330000F2EFEE4EF2EF02D0F2EF4E4FF2EF02DE5
:102340000F2EF5E5CF2EF2E0DF2EF02D6894BB24A2
:10235000B5F80F2EFEE34F2EF02D0E940106A82E99
:102360008091CE0588231CF41092CE0505C08530DF
:102370001CF0F4E0F093CE050E9486050E94A306AF
:102380008091CE0584306CF58091CD0580FF03C02F
:10239000F601F58202C0F601E58281FF03C0F60175
:1023A000F68602C0F601E68683FF03C0F09249027A
:1023B00002C0E092490284FF0AC0F09252020F2E3E
:1023C000F4E42F2EF2E03F2EF02D86012AC0E09299
:1023D00052020F2EF4E42F2EF2E03F2EF02D860154
:1023E00020C08091CD0583FF03C0F0927C0202C023
:1023F000E0927C0284FF0BC0F09285020F2EF6E67D
:102400002F2EF2E03F2EF02D07E712E00AC0E092F7
:1024100085020F2EF6E62F2EF2E03F2EF02D07E775
:1024200012E0F801B7868091CE05811113C0408279
:10243000AA2011F40C94B7209091CD0590FF05C00F
:102440009E7F9093CD050C94B72091609093CD051D
:102450000C94B720F801B082813099F44086AA200C
:1024600011F40C94BB209091CD0591FF05C09D7F88
:102470009093CD050C94BB2092609093CD050C9465
:10248000BB20F801B0868230A1F4F1014082AA207D
:1024900011F40C94BF208091CD0583FF05C0877F88
:1024A0008093CD050C94BF2088608093CD050C945B
:1024B000BF20F101B082833079F44086AA20D9F0A0
:1024C0008091CD0584FF04C08F7E8093CD0513C01D
:1024D00080618093CD050FC0F101B086843059F43E
:1024E000F801B086F1014082AA2029F083E08093B0
:1024F000CE050C9480200E946A0260E1C8010E940F
:10250000DB010E945C0260E1C1010E94DB010E94CC
:10251000230923CF943009F04AC2882311F40C9484
:1025200030208091CF058093CE050E9460020F2E4F
:10253000F7E8EF2EF2E0FF2EF02D6894BB24B5F8FB
:102540000F2EF5E5CF2EF2E0DF2EF02D0F2EFDE25F
:10255000AF2EF02D0F2EF0E34F2EF02D9A828982B0
:10256000962C672C0E9401069091CE0599231CF4AD
:102570001092CE0509C0963024F095E09093CE05D8
:1025800049C094300CF046C0E7EBF5E09081992308
:1025900044F4F601A582F42DF91B9F2FF6019683D2
:1025A00004C0F601B582905D96839091B805992399
:1025B00044F4F601A586F42DF91B9F2FF6019687AA
:1025C00004C0F601B586905D96879091B905992370
:1025D00044F4F701A582F42DF91B9F2FF701968390
:1025E00004C0F701B582905D96839091BA05992356
:1025F00054F4F701A586F42DF91B9F2FF701968758
:102600001701860140C0F701B586905D96871701D6
:10261000860139C09091B90599231CF4F701A58270
:1026200004C0F701B582905D96839091BA05992315
:1026300044F4F701A586F42DF91B9F2FF701968727
:1026400004C0F701B586905D96879091BB059923EC
:1026500074F4A0929D02F42DF91BF0939E020F2EAC
:10266000F8E92F2EF2E03F2EF02D87010CC0B0923A
:102670009D02905D90939E020F2EF8E92F2EF2E0BE
:102680003F2EF02D87019091CE05911142C09EE31F
:10269000F8019083882311F40C94E9200F2EF9E0BF
:1026A0007F2EF02D0E9401069091CE059923A1F076
:1026B000E7EBF5E02081291B2A3014F070820AC074
:1026C000273F24F0E7EBF5E0208304C027EFE7EB9A
:1026D000F5E020831092CE0581110C94C820E7EB21
:1026E000F5E08081882344F4F801A582F42DF81BDD
:1026F0008F2FF801868304C0F801B582805D868340
:1027000060E1C8010E94DB010E946A020E94230965
:10271000C9CFF801B082913009F042C09EE39087A2
:10272000882309F489C01092CE050F2EF9E07F2E80
:10273000F02D0E9401069091CE05992391F02091F1
:10274000B805291B2A301CF07092B80508C0273F35
:102750001CF02093B80503C0F7EFF093B805109272
:10276000CE05882321F091E09093CE0565C080913D
:10277000B805882344F4F801A586F42DF81B8F2FA3
:10278000F801868704C0F801B586805D868760E120
:10279000C8010E94DB010E946A020E942309C9CF7E
:1027A000F801B0869091CE05923009F045C09EE3C5
:1027B000F1019083882309F48AC01092CE050F2E70
:1027C000F9E07F2EF02D0E9401069091CE0599230D
:1027D00091F02091B905291B2A301CF07092B9059F
:1027E00008C0273F1CF02093B90503C0F7EFF09312
:1027F000B9051092CE05882321F092E09093CE0582
:1028000066C08091B905882344F4F101A582F42DB6
:10281000F81B8F2FF101868304C0F101B582805D22
:1028200086830E946A020E945C0260E1C1010E94EC
:10283000DB010E942309C7CFF101B0829091CE0540
:10284000933009F044C09EE39087882309F4A0C028
:102850001092CE050F2EF9E07F2EF02D0E9401067A
:102860009091CE05992391F02091BA05291B2A3029
:102870001CF07092BA0508C0273F1CF02093BA05DF
:1028800003C0F7EFF093BA051092CE05882321F02C
:1028900083E08093CE057CC08091BA05882344F400
:1028A000F101A586F42DF81B8F2FF101868704C056
:1028B000F101B586805D86870E946A020E945C02F3
:1028C00060E1C1010E94DB010E942309C7CFF10131
:1028D000B0869091CE05943009F047C0F801B086DB
:1028E0009EE3F1019083882309F452C01092CE0533
:1028F0000F2EF9E07F2EF02D0E9401069091CE055B
:10290000992391F02091BB05291B2A301CF070926D
:10291000BB0508C0273F1CF02093BB0503C0F7EFA1
:10292000F093BB051092CE05882321F084E08093BC
:10293000CE052EC08091BB05882344F4F101A58209
:10294000F42DF81B8F2FF101868304C0F101B582AD
:10295000805D86830E946A020E945C0260E1C10180
:102960000E94DB010E942309C7CF9091CE059530CC
:1029700079F4F101B0829EE39087882349F0762CA8
:10298000692C89809A8084E08093CE050C94802005
:102990000E946A0260E1C8010E94DB010E945C02A1
:1029A00060E1C1010E94DB010E942309DBCD95306B
:1029B00009F092C0882311F40C9439201092CE05AE
:1029C0000E9460026894CC24C1F86894FF24F5F852
:1029D0000F2EF4E4DF2EF02D06E612E00F2EFEE3BC
:1029E000EF2EF02D0E9401069091CE0599231CF444
:1029F0001092CE0504C0933014F0C092CE05909191
:102A0000D60594FF03C0D092260302C0F09226039D
:102A10009091D60595FF03C0D0922E0302C0F0928C
:102A20002E039091CE05911115C0E0E2F3E0E08213
:102A30008823F1F18091D60584FF06C08091D605E8
:102A40008F7E8093D60534C08091D60580618093B7
:102A5000D6052EC0E0E2F3E0F0829130A1F4E092DE
:102A60002803882339F18091D60585FF06C080911F
:102A7000D6058F7D8093D6051DC08091D6058062D6
:102A80008093D60517C0923099F4F0922803F8018C
:102A9000E082882389F085E08093CE050F2EF6E64C
:102AA0002F2EF2E03F2EF02D00E213E00C94802058
:102AB000F0922803F801F08260E180E293E00E9446
:102AC000DB010E945C0260E1C8010E94DB010E9400
:102AD0006A020E94230986CF963009F03FC18823FD
:102AE00011F40C9442201092CE050E94600260E125
:102AF00082E493E00E94DB016894222421F80F2EE7
:102B0000F1E3BF2EF02D0F2EF2E33F2EF02D10E358
:102B10000F2EF5E3CF2EF02D0F2EF3E3DF2EF02D49
:102B200021E333E0F22E032F0E9401069091CE059F
:102B300099231CF41092CE0504C0933014F0209217
:102B4000CE059091A80590FF0AC09FE490933903A9
:102B50009EE690933A0390E290933B0308C09FE473
:102B60009093390396E690933A0390933B03209118
:102B7000A805922F9C719C30E1F028F4943041F02C
:102B8000983071F02AC09031D9F0943101F125C00C
:102B9000D09232031093330390E2909334031DC01C
:102BA00098E390933203C092330390E290933403FE
:102BB00014C0B092320330923303109334030DC02B
:102BC000B0923203C09233031093340306C0D09204
:102BD000320310933303109334039091CE05911177
:102BE00083C09EE3E1E3F3E0908390E290933803A7
:102BF00090933C03882309F4A5C00F2EF8E34F2ED1
:102C0000F02D6894AA24A5F86894EE24E2F80E94B6
:102C100001069091CE0599231CF41092CE0513C0A5
:102C200095301CF0E092CE0542C0923031F12CF488
:102C3000992349F09130A1F046C0933059F1943076
:102C400009F041C034C09091A805937E94609093A0
:102C5000A805D092320310933303A092340333C0FB
:102C60009091A805937E98609093A80540923203B6
:102C7000C0923303A092340326C09091A805937E9E
:102C80009C609093A805B092320330923303109366
:102C9000340319C09091A805937E90619093A80584
:102CA000B0923203C0923303109334030CC090915E
:102CB000A805937E94619093A805D0923203109357
:102CC000330310933403882319F01092CE053AC0D1
:102CD0000E946A020E945C0260E18F2D902F0E9488
:102CE000DB010E94230993CF9130A9F490E2E1E344
:102CF000F3E090833EE33093380390933C038823C2
:102D000009F120FF04C02E7F2093A8051BC021607D
:102D10002093A80517C09230A9F490E2909338034D
:102D20009EE390933C03882369F086E08093CE0570
:102D30000F2EF1E32F2EF3E03F2EF02D02E413E0EF
:102D40000C9480200E946A020E945C0260E181E390
:102D500093E00E94DB010E942309E6CE9730C9F57B
:102D6000882311F40C944B201092CE050E9460022F
:102D70008DE095E090934101809340010E94E8032B
:102D800062E08091BF050E9463090E9401068823CA
:102D900069F087E08093CE050F2EF3E52F2EF3E048
:102DA0003F2EF02D04E613E00C94802060E184E6D1
:102DB00093E00E94DB010E945C0260E1809140018F
:102DC000909141010E94DB010E946A020E94230946
:102DD000D5CF983009F071C0882311F40C94542099
:102DE0001092CE050E946002CC24C3940F2EFFE403
:102DF000FF2EF02D06E60F2EFEE6DF2EF02D10E260
:102E00000F2EFEE3EF2EF02D0F2EF2E3BF2EF02D4E
:102E10000E9401069091CE0599231CF41092CE05D4
:102E200004C0923014F0C092CE059091DA05992337
:102E300039F0F0927603D09277031093780306C0AE
:102E4000F092760300937703009378039091CE0578
:102E500091110FC0E5E7F3E0E0828823D9F080917B
:102E6000DA05882319F01092DA0514C0B092DA0559
:102E700011C0E5E7F3E01083913061F4E0927E0346
:102E8000882351F088E08093CE051F0106E813E007
:102E90000C94802010937E0360E186E893E00E940A
:102EA000DB010E945C0260E185E793E00E94DB01A8
:102EB0000E946A020E942309ABCF993009F05EC1DB
:102EC000882311F40C945D201092CE050E946002BC
:102ED0008091D0059091D1058835F2E09F07D9F017
:102EE00018F40A9749F050C0843833E0930711F181
:102EF00088309740D1F148C0E7E9F3E081E381836E
:102F000080E3828380E2838383E7848385E685830D
:102F100083E686831DC0E7E9F3E081E3818380E3F4
:102F2000828380E283838DE6848389E685838EE6CF
:102F300086830EC0E7E9F3E081E3818385E3828342
:102F400080E283838DE6848389E685838EE68683AB
:102F50000F2EF0E33F2EF02D0F2EF4E8EF2EF3E0CE
:102F6000FF2EF02D08E512E017C0E7E9F3E083E358
:102F7000818380E3828380E283838DE6848389E694
:102F800085838EE68683E4CFE7E9F3E085E48183F9
:102F900082E582838383DCCF0E9401069091CE0577
:102FA00099231CF41092CE0508C0923024F091E0D1
:102FB0009093CE05C2C09111BEC09EE3E7E9F3E055
:102FC000908390E29093A103882309F4C6C0809176
:102FD000D0059091D1058835F2E09F0749F118F4AA
:102FE0000A9751F10DC0843833E0930731F08830EF
:102FF000974031F41092CE0503C081E08093CE0556
:103000006894DD24D5F80F2EFDE64F2EF02D0F2EFF
:10301000F9E6AF2EF02D0F2EFEE6BF2EF02D0F2E6F
:10302000F1E3CF2EF02D0F2EF3E72F2EF02D08C059
:1030300082E08093CE05E4CF83E08093CE05E0CF9D
:103040000E9401069091CE0599231CF41092CE05A2
:1030500049C0943024F093E09093CE050BC091309A
:1030600079F11CF4911151C03DC09230C1F0933000
:1030700009F04BC02AE030E03093D1052093D00511
:10308000C092980330929903D0929A0320929B03A6
:1030900095E690939C0393E690939D0336C010931E
:1030A000D1050093D005C092980330929903D09235
:1030B0009A0340929B03A0929C03B0929D0325C06B
:1030C000F092D105E092D005C092980395E39093D9
:1030D0009903D0929A0340929B03A0929C03B092D2
:1030E0009D0313C0E8E0F7E0F093D105E093D0052D
:1030F000F3E3F093980330929903D0929A034092AD
:103100009B03A0929C03B0929D03882319F0109218
:10311000CE0523C060E188EA93E00E94DB010E94B3
:103120005C0260E187E993E00E94DB010E946A0291
:103130000E94230985CF913081F490E2E7E9F3E022
:1031400090839EE39093A103882339F089E08093D4
:10315000CE051F0108EA13E0D3C760E188EA93E0D7
:103160000E94DB010E945C0260E187E993E00E941B
:10317000DB010E946A020E9423090ECF9A3009F0F7
:10318000DCC01091D605882309F4A0C7107F1092E7
:10319000CE050E9460026894BB24B5F80F2EFAEBAE
:1031A000EF2EF2E0FF2EF02D0F2EF6E5AF2EF02DD4
:1031B0000F2EF6E6CF2EF2E0DF2EF02D0F2EFEE3DF
:1031C0004F2EF02DF12FF460F983212F23602C83F3
:1031D000312F32603D8311601E830E940106909161
:1031E000CE0599231CF41092CE0508C0953024F02A
:1031F00094E09093CE0539C09430BCF59091D605FB
:103200009F70913019F4F701A68202C0F701B682CF
:103210009091D6059F70923019F4F701A58602C0EF
:10322000F701B5869091D6059F70933019F4A0925E
:10323000AF0202C0B092AF029091D6059F70943059
:1032400051F4A092B6020F2EF9EA2F2EF2E03F2E93
:10325000F02D870124C0B092B6020F2EF9EA2F2E6E
:10326000F2E03F2EF02D87011AC09091D6059F7095
:10327000933019F4A092AF0202C0B092AF029091C5
:10328000D6059F70943031F4A092B602160109EA77
:1032900012E005C0B092B602160109EA12E0909160
:1032A000CE05911109C0F8014082882309F475C741
:1032B000FE81F093D60571C7F801B082913041F4D8
:1032C0004086882309F46CC7FD81F093D60568C752
:1032D000F801B086923049F4F1014082882309F464
:1032E00062C7FC81F093D6055EC7F101B0829330CE
:1032F00039F44086882391F0F981F093D6050EC009
:10330000F101B086943051F4F801B086F1014082A9
:10331000882321F08AE08093CE05F2C660E1C801DF
:103320000E94DB010E945C0260E1C1010E94DB019E
:103330000E946A020E94230950CF9B3009F065C6A3
:10334000882309F4CCC68091CF058093CE050E94D6
:1033500060026894442445F80F2EFEE4AF2EF02D51
:103360000F2EF3E4BF2EF02D0F2EF4E4CF2EF02D10
:103370000F2EF2E5FF2EF02D9A8289820E9401061F
:103380009091CE05992324F41092CE0590E011C0BF
:10339000993064F098E09093CE050F2EF6E62F2E2C
:1033A000F2E03F2EF02D0EEF12E00EC694300CF03E
:1033B00031C1EDEDF5E0408150E041325105A0F51D
:1033C000FA01E65AFF4F0C94FF27ECEDF2E0A582DC
:1033D000B682478229C0ECEDF2E0B58228E426836C
:1033E00025E3278321C0ECEDF2E0C582F68221E4DB
:1033F00027831AC0ECEDF2E0C582F68225E427832C
:1034000013C0ECEDF2E0C582F68224E527830CC000
:10341000ECEDF2E0C582F682F78206C0ECEDF2E058
:10342000C582F68225E327834091DE0550E04132D4
:103430005105A0F5FA01E558FF4F0C94FF27ECED7C
:10344000F2E0A586B686478629C0ECEDF2E0B586A7
:1034500028E4268725E3278721C0ECEDF2E0C58626
:10346000F68621E427871AC0ECEDF2E0C586F686E1
:1034700025E4278713C0ECEDF2E0C586F68624E547
:1034800027870CC0ECEDF2E0C586F686F78606C00D
:10349000ECEDF2E0C586F68625E327874091DF054F
:1034A00050E041325105D8F5FA01E456FF4F0C9433
:1034B000FF27A092D002B092D1024092D2022FC038
:1034C000B092D00228E42093D10225E32093D202C7
:1034D00026C0C092D002F092D10221E42093D20201
:1034E0001EC0C092D002F092D10225E42093D202F5
:1034F00016C0C092D002F092D10224E52093D202ED
:103500000EC0C092D002F092D102F092D20207C057
:10351000C092D002F092D10225E32093D2024091D2
:10352000E00550E04132510508F090C1FA01E35442
:10353000FF4F0C94FF27A092D802B092D90240927C
:10354000DA020F2EFBEC2F2EF2E03F2EF02D0CEDC9
:1035500012E09FC1B092D80228E42093D90225E35B
:103560002093DA020F2EFBEC2F2EF2E03F2EF02DEF
:103570000CED12E08EC1C092D802F092D90221E483
:103580002093DA020F2EFBEC2F2EF2E03F2EF02DCF
:103590000CED12E07EC1C092D802F092D90225E46F
:1035A0002093DA020F2EFBEC2F2EF2E03F2EF02DAF
:1035B0000CED12E06EC1C092D802F092D90224E55F
:1035C0002093DA020F2EFBEC2F2EF2E03F2EF02D8F
:1035D0000CED12E05EC1C092D802F092D902F092D6
:1035E000DA020F2EFBEC2F2EF2E03F2EF02D0CED29
:1035F00012E04FC1C092D802F092D90225E3209385
:10360000DA020F2EFBEC2F2EF2E03F2EF02D0CED08
:1036100012E03FC196300CF08BC04091E10550E0C4
:1036200041325105A0F5FA01E252FF4F0C94FF27F9
:10363000EDEEF2E0A582B682478229C0EDEEF2E01F
:10364000B58228E4268325E3278321C0EDEEF2E04E
:10365000C582F68221E427831AC0EDEEF2E0C5822E
:10366000F68225E4278313C0EDEEF2E0C582F682F0
:1036700024E527830CC0EDEEF2E0C582F682F782E6
:1036800006C0EDEEF2E0C582F68225E32783409185
:10369000E20550E04132510508F0E1C0FA01E15085
:1036A000FF4F0C94FF27EDEEF2E0A586B686478625
:1036B0001F010BEC12E0EDC0EDEEF2E0B58628E460
:1036C000268725E327871F010BEC12E0E2C0EDEE11
:1036D000F2E0C586F68621E427871F010BEC12E095
:1036E000D8C0EDEEF2E0C586F68625E427871F01F7
:1036F0000BEC12E0CEC0EDEEF2E0C586F68624E5D6
:1037000027871F010BEC12E0C4C0EDEEF2E0C58686
:10371000F686F7861F010BEC12E0BBC0EDEEF2E07F
:10372000C586F68625E327871F010BEC12E0B1C0A2
:1037300098300CF09DC04091E30550E041325105B6
:10374000A0F5FA01E05EFE4F0C94FF27EEEFF2E0E9
:10375000A582B682478229C0EEEFF2E0B58228E466
:10376000268325E3278321C0EEEFF2E0C582F682AF
:1037700021E427831AC0EEEFF2E0C582F68225E449
:10378000278313C0EEEFF2E0C582F68224E527839B
:103790000CC0EEEFF2E0C582F682F78206C0EEEFD3
:1037A000F2E0C582F68225E327834091E40550E0EC
:1037B0004132510508F065C0FA01EF5BFE4F0C94F1
:1037C000FF27EEEFF2E0A586B68647861F010DEED5
:1037D00012E05FC0EEEFF2E0B58628E4268725E32D
:1037E00027871F010DEE12E054C0EEEFF2E0C58610
:1037F000F68621E427871F010DEE12E04AC0EEEFA6
:10380000F2E0C586F68625E427871F010DEE12E05B
:1038100040C0EEEFF2E0C586F68624E527871F015B
:103820000DEE12E036C0EEEFF2E0C586F686F786C2
:103830001F010DEE12E02DC0EEEFF2E0C586F68618
:1038400025E327871F010DEE12E023C00F2EFBECAE
:103850002F2EF2E03F2EF02D0CED12E01AC00F2EAD
:10386000FDEE2F2EF2E03F2EF02D0BEC12E011C0FA
:103870000F2EF6E62F2EF2E03F2EF02D0EEF12E087
:1038800008C00F2EFEEF2F2EF2E03F2EF02D0DEE92
:1038900012E0911172C09EE3F80190834086882364
:1038A00009F4A4C30F2EF5E3DF2EF02D6894EE2467
:1038B000E4F8882483940F2EF8E49F2EF02D0E94C4
:1038C00001069091CE0599231CF41092CE0508C0F4
:1038D000963024F095E09093CE0538C0911108C041
:1038E000F801A582B6824782EDEDF5E0108235C081
:1038F000913041F4F801B5829682D782EDEDF5E082
:1039000040822BC0923049F4F801C582F68221E44E
:103910002783EDEDF5E0808220C0933051F4F8016B
:10392000C582F68225E4278322E0EDEDF5E02083D1
:1039300014C0943049F4F801C582F682F78228E079
:10394000EDEDF5E0208309C0953039F4F801C5822A
:10395000F682D782EDEDF5E0E082882319F010922F
:10396000CE0544C30E946A026E2DC8010E94DB018D
:103970000E945C020E942309A2CF913009F071C01D
:103980009EE3F80190874082F1014082882309F488
:103990002DC31092CE050F2EF5E3DF2EF02D689487
:1039A000EE24E4F80F2EF1E48F2EF02D9924939459
:1039B0000E9401069091CE0599231CF41092CE0529
:1039C00008C0963024F095E09093CE0533C0911155
:1039D00007C0F801A586B68647861092DE0530C07E
:1039E000913041F4F801B58698E49687D7864092E5
:1039F000DE0526C0923039F4F801C586F686878642
:103A00009092DE051DC0933049F4F801C586F68614
:103A100025E4278732E03093DE0512C0943041F46C
:103A2000F801C586F686F786F8E0F093DE0508C053
:103A3000953031F4F801C586F686D786E092DE052A
:103A4000882321F081E08093CE05D0C20E946A02D3
:103A50006E2DC8010E94DB010E945C020E942309B6
:103A6000A7CF923009F072C09EE3F1019083F80174
:103A70004086F1014086882309F4B8C21092CE0531
:103A80000F2EF5E3DF2EF02D6894EE24E4F80F2ED0
:103A9000F1E48F2EF02D992493940E9401069091C9
:103AA000CE0599231CF41092CE0508C0963024F060
:103AB00095E09093CE0533C0911107C0F101A58226
:103AC000B68247821092DF0530C0913041F4F10197
:103AD000B58298E49683D7824092DF0526C0923063
:103AE00039F4F101C582F68287829092DF051DC00C
:103AF000933049F4F101C582F68225E4278332E050
:103B00003093DF0512C0943041F4F101C582F68292
:103B1000F782F8E0F093DF0508C0953031F4F10149
:103B2000C582F682D782E092DF05882321F082E009
:103B30008093CE055BC20E946A020E945C026E2DD9
:103B4000C1010E94DB010E942309A7CF933009F035
:103B50006FC09EE3F10190874082882309F446C23A
:103B60001092CE050F2EF5E3DF2EF02D6894EE2493
:103B7000E4F80F2EF1E48F2EF02D992493940E94F7
:103B800001069091CE0599231CF41092CE0508C031
:103B9000963024F095E09093CE0533C0911107C084
:103BA000F101A586B68647861092E00530C09130B7
:103BB00041F4F101B58698E49687D7864092E005F6
:103BC00026C0923039F4F101C586F6868786909238
:103BD000E0051DC0933049F4F101C586F68625E461
:103BE000278732E03093E00512C0943041F4F101B0
:103BF000C586F686F786F8E0F093E00508C09530B4
:103C000031F4F101C586F686D786E092E005882377
:103C100021F083E08093CE05E9C10E946A020E94F0
:103C20005C026E2DC1010E94DB010E942309A7CF17
:103C3000943009F071C0F80140869EE3F101908351
:103C40004086882309F4D2C11092CE050F2EF5E3E9
:103C5000DF2EF02D6894EE24E4F80F2EF1E48F2E81
:103C6000F02D992493940E9401069091CE059923FA
:103C70001CF41092CE0508C0963024F095E0909385
:103C8000CE0533C0911107C0F101A582B6824782EB
:103C90001092E10530C0913041F4F101B58298E411
:103CA0009683D7824092E10526C0923039F4F10123
:103CB000C582F68287829092E1051DC0933049F457
:103CC000F101C582F68225E4278332E03093E105D5
:103CD00012C0943041F4F101C582F682F782F8E017
:103CE000F093E10508C0953031F4F101C582F68208
:103CF000D782E092E105882321F084E08093CE050D
:103D000075C10E946A020E945C026E2DC1010E9470
:103D1000DB010E942309A7CF953009F06FC09EE315
:103D2000F10190874082882309F460C11092CE058A
:103D30000F2EF5E3DF2EF02D6894EE24E4F80F2E1D
:103D4000F1E48F2EF02D992493940E940106909116
:103D5000CE0599231CF41092CE0508C0963024F0AD
:103D600095E09093CE0533C0911107C0F101A5866F
:103D7000B68647861092E20530C0913041F4F101D9
:103D8000B58698E49687D7864092E20526C09230A1
:103D900039F4F101C586F68687869092E2051DC04A
:103DA000933049F4F101C586F68625E4278732E091
:103DB0003093E20512C0943041F4F101C586F686D5
:103DC000F786F8E0F093E20508C0953031F4F10190
:103DD000C586F686D786E092E205882321F085E045
:103DE0008093CE0503C10E946A020E945C026E2D80
:103DF000C1010E94DB010E942309A7CF963009F080
:103E000071C0F80140869EE3F101908340868823CB
:103E100009F4ECC01092CE050F2EF5E3DF2EF02D45
:103E20006894EE24E4F80F2EF1E48F2EF02D9924FF
:103E300093940E9401069091CE0599231CF4109250
:103E4000CE0508C0963024F095E09093CE0533C09F
:103E5000911107C0F101A582B68247821092E30555
:103E600030C0913041F4F101B58298E49683D78255
:103E70004092E20526C0923039F4F101C582F68203
:103E800087829092E2051DC0933049F4F101C5820A
:103E9000F68225E4278332E03093E20512C09430A5
:103EA00041F4F101C582F682F782F8E0F093E20571
:103EB00008C0953031F4F101C582F682D782E092D4
:103EC000E205882321F086E08093CE058FC00E9412
:103ED0006A020E945C026E2DC1010E94DB010E94F9
:103EE0002309A7CF973009F06FC09EE3F1019087B7
:103EF0004082882309F47AC01092CE050F2EF5E394
:103F0000DF2EF02D6894EE24E4F80F2EF1E48F2ECE
:103F1000F02D992493940E9401069091CE05992347
:103F20001CF41092CE0508C0963024F095E09093D2
:103F3000CE0533C0911107C0F101A586B68647862C
:103F40001092E40530C0913041F4F101B58698E457
:103F50009687D7864092E40526C0923039F4F10165
:103F6000C586F68687869092E4051DC0933049F495
:103F7000F101C586F68625E4278732E03093E40513
:103F800012C0943041F4F101C586F686F786F8E058
:103F9000F093E40508C0953031F4F101C586F6864A
:103FA000D786E092E405882321F087E08093CE0550
:103FB0001DC00E946A020E945C026E2DC1010E9417
:103FC000DB010E942309A7CF9091CE05983071F4B0
:103FD000F80140869EE3F10190834086882331F00A
:103FE00089809A808BE08093CE058AC00E946A0205
:103FF00060E1C8010E94DB010E945C0260E1C10136
:104000000E94DB010E942309B9C99C3009F078C0E5
:10401000882309F46DC0E6C00F2EFAEC2F2EF3E0D2
:104020003F2EF02D0BED13E06BC00F2EF7E62F2E79
:10403000F1E03F2EF02D08E711E062C00F2EFCEEFC
:104040002F2EF3E03F2EF02D0AEC13E059C00F2E77
:10405000FDEF2F2EF3E03F2EF02D0EE014E050C0C8
:104060000F2EFFE12F2EF4E03F2EF02D00E314E0A1
:1040700047C00F2EF1E42F2EF4E03F2EF02D02E585
:1040800014E03EC00F2EF3E62F2EF4E03F2EF02D6D
:1040900004E714E035C00F2EF3E52F2EF3E03F2E9A
:1040A000F02D05E814E02CC00F2EF6E92F2EF4E0D9
:1040B0003F2EF02D07EA14E023C00F2EF8EB2F2E31
:1040C000F4E03F2EF02D09EC14E01AC00F2EFAEDAB
:1040D0002F2EF4E03F2EF02D08EA13E011C00F2E32
:1040E000FBEE2F2EF4E03F2EF02D0CEF14E008C075
:1040F0000F2EF2E22F2EF2E03F2EF02D09EB13E00F
:1041000032990AC08091AA05811106C081E080938E
:10411000AA051092C5050FC08091C5058E3758F0CD
:104120008091AA05813039F4329B03C01092AA0510
:1041300002C00E94D40C0E9423090E946A0260E11E
:10414000C8010E94DB010E945C0260E1C1010E9483
:10415000DB010C94D70DF801B0860C945C11F101D1
:10416000B0820C946F11F101B0860C947E11F801AD
:10417000B0860C945912F101B0820C946C12F101CA
:10418000B0860C947B128EE3F80180870C94931315
:104190009091CE05913079F4F6CFF801B086A5C89C
:1041A000F101B082ADC8F101B086B8C88EE3F1016B
:1041B00080830C94DD13F801B0869091CE05923087
:1041C00011F00C941C14F2CF9EE3F10190830C9437
:1041D0006714F801B0869091CE05923011F00C94DE
:1041E0001C14F2CF8091CF05F82FFF0FF80F8F2FFF
:1041F000880F880FF80FFF5F2F2F30E03A83298355
:1042000007EB15E0F8016081C9010E943528F8012B
:10421000618189819A8101960E943528F801638124
:1042200089819A8102960E943528F80164818981EA
:104230009A8103960E9435286091DB0589819A81D5
:1042400004960E9435286091CD0589819A81059652
:104250000E9435286091D60589819A8106960E9430
:1042600035280DED15E0F801608189819A81079666
:104270000E943528F801618189819A8108960E94FF
:104280003528F801628189819A8109960E94352832
:10429000F801638189819A810A960E943528F80184
:1042A000648189819A810B960E943528F801658185
:1042B00089819A810C960E943528F801668189814E
:1042C0009A810D960E943528F801678189819A812B
:1042D0000E960E9435286091CF0589E790E00E94F4
:1042E00035286091DA058AE790E00E9435286091D0
:1042F000D0057091D1058BE790E00E94472810927D
:10430000CE0580E026960FB6F894DEBF0FBECDBF77
:10431000DF91CF911F910F91FF90EF90DF90CF90A1
:10432000BF90AF909F908F907F906F905F904F90D5
:104330003F902F900895CF93DF9300D000D0CDB75A
:10434000DEB70E9404030E94DF020E94F40160E0D5
:1043500088E391E00E94740261E080E391E00E94B2
:10436000740262E088E291E00E94740263E080E2FD
:1043700091E00E94740264E088E191E00E9474027E
:1043800065E080E191E00E94740266E088E091E0DF
:104390000E94740267E080E091E00E94740263E092
:1043A00082E00E94522578940E946A0260E18EE1C8
:1043B00095E00E94DB010E945C0220E129838FEFDF
:1043C0000E94AC018FE292EF0197F1F700C000006C
:1043D00032990E94D40C9981915099839111EFCF19
:1043E00082E08093AA055C9A0E9460020CEB15E0C3
:1043F0000F2EF8EEEF2EF3E0FF2EF02D0F2EF2E34E
:10440000DF2EF02DCC24C3940E94E803F8018281B2
:10441000823320F482E08093AA0547C060E18FE2F6
:1044200095E00E94DB010E945C0260E180E495E07F
:104430000E94DB01F092E605E092E505EBEAF5E08B
:10444000D0828091AC0588608093AC050E94010603
:10445000882321F082E08093AA0527C08091AA05D5
:10446000823039F4329BE5C21092AA05329B05C016
:10447000E4C2329907C0811105C0C092AA0510920A
:10448000C5050FC08091C5058E3758F08091AA05EB
:10449000813039F4329B03C01092AA0502C00E94F9
:1044A000D40C0E9423095C9AAFCF80E090E00E9478
:1044B000FB08FFEF20E782E0F15020408040E1F769
:1044C00000C0000088EE93E00E94FB089FEFE0E749
:1044D000F2E09150E040F040E1F700C0000080E0E1
:1044E00090E00E94FB082FE788E391E02150804094
:1044F0009040E1F700C0000088EE93E00E94FB08C6
:10450000EFEFF0E722E0E150F0402040E1F700C09B
:10451000000080E090E00E94FB080E949306682F54
:1045200070E080E090E00E94C1266093D205709315
:10453000D3058093D4059093D5050E9460020F2E79
:10454000FBEA4F2EF5E05F2EF02D0F2EF2E66F2ED8
:10455000F5E07F2EF02D0F2EF7EDCF2EF5E0DF2EBC
:10456000F02D0F2EF7EB2F2EF5E03F2EF02D0E94B1
:104570000106882399F08CED95E00E94FB088FE7F7
:1045800099EAE3E081509040E040E1F700C000008C
:1045900080E090E00E94FB080E94B20D8091CE0561
:1045A00088231CF41092CE0505C083301CF0F2E085
:1045B000F093CE058091AA05823039F4329B3BC23C
:1045C0001092AA05329B05C03BC2329908C08111E6
:1045D00006C021E02093AA051092C5050FC0809166
:1045E000C5058E3758F08091AA05813039F4329B89
:1045F00003C01092AA0502C00E94D40C8091A705A6
:104600008F5F833318F48093A70569C01092A705C4
:104610000E949306182F8093DC052CEE31E548E7C5
:104620005FE36091D2057091D3058091D40590919C
:10463000D5050E9473274B015C01612F70E080E07B
:1046400090E00E94C32620E832EC45EF5CE30E9434
:1046500073279B01AC01C501B4010E94AF254B013A
:104660005C016093D2057093D3058093D405909339
:10467000D50520E030E04EE353E40E941B2688235A
:104680009CF48091440182FF0FC08B7F8093440192
:1046900080ED97E09093E6058093E50522E3F20133
:1046A00020838CE081831BC020E030E044E353E4AE
:1046B000C501B4010E941B2688238CF480ED97E08D
:1046C0000E94FB089FEFE9E6F8E19150E040F040DE
:1046D000E1F700C0000080E090E00E94FB088091BC
:1046E000C6059091C7058935924098F08091A6053E
:1046F00081110FC081E08093A60580ED97E0909333
:10470000E6058093E5052FE1F20120838181896030
:1047100081830E94E8030E9486050E9425040E946E
:10472000A3060E9455078091D6058F70813019F439
:104730000E94F20824C08091D6058F70833081F4E6
:104740000E94A5250E94A52565E08CEB95E00E94BE
:104750008A258FE19EE40197F1F700C000000FC0A9
:104760008091D6058F70823011F4000008C08091CE
:10477000D6058F70843011F4000001C000008091D4
:10478000CE058111FDC0E1E5F5E0F0934301E09332
:10479000420170924101609240018091CF058F5C8F
:1047A000809356058091D6058F70823089F018F479
:1047B000813031F015C0833039F0843069F010C099
:1047C0008AE4809359050FC085E5809359050BC095
:1047D0008EE48093590507C082E48093590503C095
:1047E00084E4809359056091D2057091D30580913E
:1047F000D4059091D5050E94922670E0CB01880FD8
:10480000991F880F991F680F791F072F112707FD20
:104810001A95F6010083072E000C880B990B0E9455
:10482000C3264B015C017801FF242DEC3CEC4CECE1
:1048300051E40E94202669837A838B839C83B7018D
:10484000660F771FC701880F991F880F991F880F60
:10485000991F680F791F072E000C880B990B0E9477
:10486000C3269B01AC0169817A818B819C810E9466
:10487000AE250E949226162FF60161832AE037EDBD
:1048800043E250E4C501B4010E9420264B015C01C3
:10489000812F90E09C01220F331FBC01660F771F10
:1048A000660F771F660F771F620F731F072E000CAE
:1048B000880B990B0E94C3269B01AC01C501B40172
:1048C0000E94AE254B015C0184E68E9DB0018F9D58
:1048D000700D1124072E000C880B990B0E94C32623
:1048E0009B01AC01C501B4010E94AE250E94922635
:1048F000F6016283005D00935C05105D10935E0518
:10490000605D60935F05F1018081882334F0805DF4
:10491000F301818380E2828306C09DE2F3019183EB
:1049200090E3981B9283F101818188234CF0E09100
:104930004001F0914101805D858380E2868309C05A
:10494000E0914001F09141019DE2958390E3981B35
:104950009683F101838188234CF0E0914001F0912E
:104960004101805D818780E282874EC0E0914001F5
:10497000F09141019DE2918790E3981B928744C09A
:10498000813019F583E795E09093430180934201CC
:10499000E4E8F5E0F0934101E09340010CEB15E011
:1049A00060E0F80180810E94630961E0F801818183
:1049B0000E94630962E0F80182810E94630963E05A
:1049C000F80183810E9463091FC08230E9F484E802
:1049D00095E09093430180934201E5E9F5E0F0937F
:1049E0004101E09340010CEB15E060E0F8018281A9
:1049F0000E94630961E0F80183810E94630962E01B
:104A0000F80184810E9463090E946A0260E180913A
:104A10004201909143010E94DB010E945C0260E12F
:104A200080914001909141010E94DB010E94230985
:104A30009ECD86B102C086B103C08091C50531CD3F
:104A40008091C505DBCD1092B9008CE08093B80051
:104A5000089594EA9093BC00ECEBF0E090819923E8
:104A6000ECF78093BB0084E88093BC00ECEBF0E0B3
:104A700080818823ECF780E008958093BB0084E870
:104A80008093BC00ECEBF0E080818823ECF780E0C1
:104A9000089584E98093BC00ECEBF0E0808184FD14
:104AA000FDCF0895823069F018F4813031F014C0E0
:104AB000833059F0843069F00FC083E38093CC05D4
:104AC0000BC082E28093CC0507C089E18093CC05BE
:104AD00003C08CE08093CC051092C5008091CC057A
:104AE0008093C40060FF03C088E08093C100962FCC
:104AF0009470667029F0E1ECF0E080818061808341
:104B0000992329F0E1ECF0E080818068808350985F
:104B1000519A0895CF93DF936623A1F0DC01615091
:104B2000262F30E02F5F3F4F280F391FE0ECF0E0D9
:104B3000C6ECD0E0908195FFFDCF9D919883A217A0
:104B4000B307C1F7DF91CF910895E0ECF0E08081E9
:104B500085FFFDCF8AE08093C60008955058BB279B
:104B6000AA270E94C6250C9439270E942B2738F0CB
:104B70000E94322720F039F49F3F19F426F40C9458
:104B800028270EF4E095E7FB0C942227E92F0E94DA
:104B90004A2758F3BA17620773078407950720F06E
:104BA00079F4A6F50C946C270EF4E0950B2EBA2F31
:104BB000A02D0B01B90190010C01CA01A001112423
:104BC000FF27591B99F0593F50F4503E68F11A16CF
:104BD000F040A22F232F342F4427585FF3CF469560
:104BE00037952795A795F0405395C9F77EF41F1682
:104BF000BA0B620B730B840BBAF09150A1F0FF0F4C
:104C0000BB1F661F771F881FC2F70EC0BA0F621F37
:104C1000731F841F48F4879577956795B795F79527
:104C20009E3F08F0B0CF9395880F08F09927EE0FBC
:104C30009795879508950E94FE2608F481E00895CF
:104C40000E9434260C9439270E94322758F00E9483
:104C50002B2740F029F45F3F29F00C9422275111B3
:104C60000C946D270C9428270E944A2768F39923F7
:104C7000B1F3552391F3951B550BBB27AA27621758
:104C80007307840738F09F5F5F4F220F331F441F65
:104C9000AA1FA9F335D00E2E3AF0E0E832D0915099
:104CA0005040E695001CCAF72BD0FE2F29D0660F86
:104CB000771F881FBB1F261737074807AB07B0E8C9
:104CC00009F0BB0B802DBF01FF2793585F4F3AF0CF
:104CD0009E3F510578F00C9422270C946D275F3F7E
:104CE000E4F3983ED4F3869577956795B795F79555
:104CF0009F5FC9F7880F911D9695879597F908953D
:104D0000E1E0660F771F881FBB1F621773078407D8
:104D1000BA0720F0621B730B840BBA0BEE1F88F7E7
:104D2000E09508950E94522788F09F5798F0B92F78
:104D30009927B751B0F0E1F0660F771F881F991FD0
:104D40001AF0BA95C9F714C0B13091F00E946C27DF
:104D5000B1E008950C946C27672F782F8827B85FEF
:104D600039F0B93FCCF3869577956795B395D9F728
:104D70003EF490958095709561957F4F8F4F9F4F32
:104D80000895E89409C097FB3EF49095809570953E
:104D900061957F4F8F4F9F4F9923A9F0F92F96E987
:104DA000BB279395F695879577956795B795F111FC
:104DB000F8CFFAF4BB0F11F460FF1BC06F5F7F4F99
:104DC0008F4F9F4F16C0882311F096E911C07723AB
:104DD00021F09EE8872F762F05C0662371F096E8B4
:104DE000862F70E060E02AF09A95660F771F881F83
:104DF000DAF7880F9695879597F90895990F000827
:104E0000550FAA0BE0E8FEEF16161706E807F9079C
:104E1000C0F012161306E407F50798F0621B730B37
:104E2000840B950B39F40A2661F0232B242B252BB8
:104E300021F408950A2609F4A140A6958FEF811D5B
:104E4000811D089597F99F6780E870E060E00895FC
:104E50009FEF80EC089500240A9416161706180692
:104E60000906089500240A9412161306140605066E
:104E70000895092E0394000C11F4882352F0BB0FFF
:104E800040F4BF2B11F460FF04C06F5F7F4F8F4F62
:104E90009F4F089557FD9058440F551F59F05F3F9D
:104EA00071F04795880F97FB991F61F09F3F79F04C
:104EB00087950895121613061406551FF2CF4695CE
:104EC000F1DF08C0161617061806991FF1CF869550
:104ED0007105610508940895E894BB276627772734
:104EE000CB0197F908950E9486270C9439270E94D8
:104EF0002B2738F00E94322720F0952311F00C94D4
:104F000022270C94282711240C946D270E944A27ED
:104F100070F3959FC1F3950F50E0551F629FF0010C
:104F2000729FBB27F00DB11D639FAA27F00DB11D25
:104F3000AA1F649F6627B00DA11D661F829F2227AE
:104F4000B00DA11D621F739FB00DA11D621F839F35
:104F5000A00D611D221F749F3327A00D611D231F0B
:104F6000849F600D211D822F762F6A2F11249F5759
:104F700050409AF0F1F088234AF0EE0FFF1FBB1F5C
:104F8000661F771F881F91505040A9F79E3F51051B
:104F900080F00C9422270C946D275F3FE4F3983E39
:104FA000D4F3869577956795B795F795E7959F5FC5
:104FB000C1F7FE2B880F911D9695879597F9089557
:104FC000052E97FB1EF400940E94F72757FD07D08B
:104FD0000E94052807FC03D04EF40C94F727509547
:104FE0004095309521953F4F4F4F5F4F08959095D5
:104FF0008095709561957F4F8F4F9F4F0895EE0F6D
:10500000FF1F0590F491E02D0994A1E21A2EAA1B2E
:10501000BB1BFD010DC0AA1FBB1FEE1FFF1FA21768
:10502000B307E407F50720F0A21BB30BE40BF50B65
:10503000661F771F881F991F1A9469F760957095EE
:10504000809590959B01AC01BD01CF010895F99920
:10505000FECF92BD81BDF89A992780B50895A8E149
:10506000B0E042E050E00C944F28262FF999FECF93
:1050700092BD81BDF89A019700B4021639F01FBAAB
:1050800020BD0FB6F894FA9AF99A0FBE08950196CA
:10509000272F0E9436280C943528DC01CB01FC0117
:1050A000F999FECF06C0F2BDE1BDF89A319600B481
:0E50B0000D9241505040B8F70895F894FFCF8C
:1050BE0001010101010101010303030303030303C2
:1050CE0007070707070707070F0F0F0F0F0F0F0F22
:1050DE001E1E1E1E1E1E1E1E1C1C1C1C1C1C1C1CF2
:1050EE001818181818181818101010101010101072
:1050FE006205510504202020202020425945212000
:10510E0020202020200020202020202020202020B1
:10511E00202020202020003E4D6978696E672020D7
:10512E002020202020202000204D6F64656C204E12
:10513E00756D6265722020200020567461696C20A6
:10514E00202020202020202020003E456C65766FF8
:10515E006E202020202020202020003E56746169E1
:10516E006C202020202020202020200020456C654F
:10517E00766F6E202020202020202020003E4469C3
:10518E0066662054687275737420202020003E4697
:10519E006C617065726F6E20202020202020002010
:1051AE00446966662054687275737420202020004E
:1051BE003E557365722020202020202020202020A4
:1051CE000020466C617065726F6E202020202020BA
:1051DE0020003E45786974202020202020202020A9
:1051EE0020200020557365722020202020202020B2
:1051FE002020200020527564202020202043483596
:10520E0020202020002041696C2020202020456C89
:10521E006520202020002045786974202020202041
:10522E0020202020202000205275642020202020C5
:10523E004348352020200020546872202020202052
:10524E005275642020202000204348352020202045
:10525E00204578697420202000205541525420208A
:10526E002020424C452020202000204A4632342067
:10527E002020204E52462020202000205357332D30
:10528E00202020205357342D20202000205357312A
:10529E002D202020205357322D2020200020535720
:1052AE00352D202020205357362D2020200020532E
:1052BE0057372D202020205357382D202020002016
:1052CE004D6F64656C202020202045786974200085
:1052DE0020434835202020202043483620202020FF
:1052EE0000203330206D6168202020202045786911
:1052FE0074004261747465727920436861726765E7
:10530E007220003E536572766F20546573742020B0
:10531E0020202000536572766F20746573742028E8
:10532E005275642900202020202020202020204596
:10533E0078697420200020537065616B6572205669
:10534E006F6C756D652000202020202020202020ED
:10535E00202045786974200020506F776572206F89
:10536E0066662074696D65200020537769746368E2
:10537E0020616C6C6F6361746500204D6978696E95
:10538E0067202020202020202020003E4D6F6465C5
:10539E006C204E756D626572202020003E5265763F
:1053AE00657273652020202020202020003E447549
:1053BE00616C205261746520202020202000205234
:1053CE006576657273652020202020202020003E07
:1053DE005472696D202020202020202020202000C3
:1053EE00204475616C20526174652020202020209D
:1053FE00003E536572766F2044656C6179202020E3
:10540E002000205472696D20202020202020202092
:10541E002020003E426174204368617267657220ED
:10542E002020200020536572766F2044656C6179D0
:10543E00202020200020426174204368617267653D
:10544E007220202020003E537065616B6572204DE6
:10545E007574652020200020536572766F20546588
:10546E0073742020202020003E506F776572206FCD
:10547E0066662074696D65200020537065616B65EA
:10548E0072204D757465202020003E4F7574707526
:10549E0074206D6F646520202020003E5377697460
:1054AE00636820616C6C6F6361746500204F757466
:1054BE00707574206D6F64652020202000202020E0
:1054CE00202020202020203E4578697420002020B6
:1054DE0020205041544120545820202020200020CC
:1054EE005448524F54544C452048494748212000B7
:1054FE00204D454E5520544F2049474E4F52452082
:10550E00004D4F44454C582020582020582E5858B6
:10551E0056004120202045202020522020202020EF
:10552E002020004120202020202020452020202047
:10553E002020200054202020202020205220202017
:10554E002020202000472020202020202020202046
:06555E00202020202000A7
:00000001FF
